{
  "contractName": "SimpleStorage",
  "abi": [
    {
      "constant": true,
      "inputs": [],
      "name": "storedData",
      "outputs": [
        {
          "name": "",
          "type": "uint256"
        }
      ],
      "payable": false,
      "stateMutability": "view",
      "type": "function"
    },
    {
      "inputs": [
        {
          "name": "initialValue",
          "type": "uint256"
        }
      ],
      "payable": false,
      "stateMutability": "nonpayable",
      "type": "constructor"
    },
    {
      "anonymous": false,
      "inputs": [
        {
          "indexed": true,
          "name": "who",
          "type": "address"
        },
        {
          "indexed": false,
          "name": "new_value",
          "type": "uint256"
        }
      ],
      "name": "ValueChanged",
      "type": "event"
    },
    {
      "constant": false,
      "inputs": [
        {
          "name": "x",
          "type": "uint256"
        }
      ],
      "name": "set",
      "outputs": [],
      "payable": false,
      "stateMutability": "nonpayable",
      "type": "function"
    },
    {
      "constant": true,
      "inputs": [],
      "name": "get",
      "outputs": [
        {
          "name": "retVal",
          "type": "uint256"
        }
      ],
      "payable": false,
      "stateMutability": "view",
      "type": "function"
    }
  ],
  "bytecode": "0x608060405234801561001057600080fd5b5060405160208061019b8339810180604052602081101561003057600080fd5b81019080805190602001909291905050508060008190555050610143806100586000396000f3fe608060405234801561001057600080fd5b50600436106100415760003560e01c80632a1afcd91461004657806360fe47b1146100645780636d4ce63c14610092575b600080fd5b61004e6100b0565b6040518082815260200191505060405180910390f35b6100906004803603602081101561007a57600080fd5b81019080803590602001909291905050506100b6565b005b61009a61010e565b6040518082815260200191505060405180910390f35b60005481565b806000819055503373ffffffffffffffffffffffffffffffffffffffff167fe2b64d6eb95e02b6354c9dad0f0b75f05c8659bc5f2a0f91bc457fc27c55c688826040518082815260200191505060405180910390a250565b6000805490509056fea165627a7a72305820f1588d1d8e0d252697d8a45ac9a151b3acb2dd30e70360aadea2b7ac20f881370029",
  "source": "pragma solidity ^0.5.0;\n\ncontract SimpleStorage {\n    uint public storedData;\n    event ValueChanged(address indexed who, uint new_value);\n\n    constructor(uint initialValue) public {\n        storedData = initialValue;\n    }\n\n    function set(uint x) public {\n        storedData = x;\n        emit ValueChanged(msg.sender, x);\n    }\n\n    function get() public view returns (uint retVal) {\n        return storedData;\n    }\n\n}\n\n",
  "sourcePath": "/Users/mortimr/projects/ethvtx/examples/contracts/simple_storage.sol",
  "compiler": {
    "name": "solc",
    "version": "0.5.8+commit.23d335f2.Emscripten.clang"
  },
  "schemaVersion": "3.0.15",
  "updatedAt": "2019-09-20T10:11:01.677Z",
  "devdoc": {
    "methods": {}
  },
  "userdoc": {
    "methods": {}
  }
}